:100000000C942A000C9440010C9447000C94470077
:100010000C9447000C9447000C9447000C94470044
:100020000C9447000C9447000C9447000C94470034
:100030000C9447000C9447000C9447000C94470024
:100040000C9447000C9447000C9447000C94470014
:100050000C94470011241FBECFE5D8E0DEBFCDBF12
:1000600010E0A0E6B0E0E4E3F3E002C005900D92FA
:10007000AC3EB107D9F720E0ACEEB0E001C01D9274
:10008000A13FB207E1F70E9493000C9498010C94F1
:1000900000001ABA87E886B980E687B9089597B153
:1000A000987F97B997B18770982B97B9369A349BF8
:1000B000FECF85B1089588E18AB986E880BD83E3E3
:1000C00089B908955D9BFECF8CB908950F931F9356
:1000D000CF93FC018081882359F08F01C0E00E94FA
:1000E0006200CF5FF801EC0FF11D80818111F7CF25
:1000F000CF911F910F9108955F9BFECF8CB1089512
:1001000018BA80EF88BB0895A89A88E28A95F1F71B
:10011000A8988091EF009091F0006AE370E00E944F
:100120007001862F08950E9449000E945B001ABA50
:100130008FEF87BB90EF98BB84BB8A982FE788E34B
:1001400091E0215080409040E1F700C000008BB763
:1001500080648BBF85B7816085BF78940F2EF0EBEC
:10016000CF2EF02D0F2EF0EDDF2EF02D0F2EF0EE16
:10017000EF2EF02D0F2EF0E7FF2EF02D06E819E8F8
:10018000DAE880E690E00E9466008DE790E00E9449
:1001900066000E947C00C82F813379F58DEA90E0DB
:1001A0000E946600C5E80E947C00873711F4C8BB36
:1001B000FACF833711F4D8BBF6CF813611F418BBD0
:1001C000F2CF843611F408BBEECF8F3619F40E94BB
:1001D0008000E9CF823611F4F8BAE5CF8A3711F4FE
:1001E000E8BAE1CF883711F4D8BADDCF833611F4FD
:1001F000C8BAD9CF8137B9F6C4CF8233B1F58DEA09
:1002000090E00E94660016E8D5E80E948400809382
:10021000EC000E948400C82F8093EC0080E00E94D4
:100220004F0081E00E944F00CF3098F0D8BB84ECA3
:1002300090E00E9466002FEF86E791E02150804019
:100240009040E1F700C000000E9484008093EC0021
:10025000DCCF18BB8FE295E70197F1F700C00000F3
:100260000E9484008093EC00D0CF88EC90E00E9444
:1002700066008C2F0E94620080E20E94620081CFA3
:100280001F920F920FB60F9211248F939F9380911C
:10029000ED009091EE00019769F41EBC8CB59DB500
:1002A0009093F0008093EF001DBC1CBC1092EE00F8
:1002B0001092ED008091ED009091EE00892B49F4B1
:1002C0008EB581608EBD81E090E09093EE008093CA
:1002D000ED009F918F910F900FBE0F901F9018957A
:1002E00097FB072E16F4009407D077FD09D00E94E3
:1002F000840107FC05D03EF4909581959F4F0895A9
:10030000709561957F4F0895AA1BBB1B51E107C0F3
:10031000AA1FBB1FA617B70710F0A61BB70B881F95
:10032000991F5A95A9F780959095BC01CD01089524
:04033000F894FFCF6F
:1003340048692C69276D2074686520424C41434B01
:10034400204B4E49474854203A44200A00706C65BB
:100354006173652063686F6F736520746865206DD1
:100364006F64652C313D636F6E74726F6C2C323D1B
:100374006175746F6E6F6D6F7573200A006E6F74A4
:10038400652E2E2E746F20717569742073656E64EA
:1003940020710A007570200069207361696420313E
:1003A4003D636F6E74726F6C2C323D6175746F6E49
:0C03B4006F6D6F7573206E6F7420000079
:00000001FF
