:100000000C942A000C9447000C9447000C94470071
:100010000C9447000C9447000C9447000C94470044
:100020000C9447000C9447000C9447000C94470034
:100030000C9447000C9447000C9447000C94470024
:100040000C9447000C9447000C9447000C94470014
:100050000C94470011241FBECFE5D8E0DEBFCDBF12
:1000600010E0A0E6B0E0ECE4F5E002C005900D92EF
:10007000AE36B107D9F720E0AEE6B0E001C01D9280
:10008000A637B207E1F70E94E4010C94A4020C9495
:10009000000082E487B987E886B9089597B1907E19
:1000A00097B997B18770982B97B9369A349BFECF42
:1000B000349A24B135B1822F932F089598B3282F05
:1000C000207F9F70922B98BBC098C198C29A000065
:1000D000C29831E23A95F1F7000028B330E1839FEE
:1000E000C0011124922F9F70892B88BBC29A0000F7
:1000F000C29881E28A95F1F70000089598B3282FFD
:10010000207F9F70922B98BBC09AC198C29A000022
:10011000C29828B330E1839FC0011124922F9F70B1
:10012000892B88BBC29A0000C29881E28A95F1F7B8
:10013000000008958FEF87BBC29883EF91E001978D
:10014000F1F700C0000083E30E945E0091E29A95FF
:10015000F1F7000082E30E945E0081E28A95F1F7E8
:10016000000088E20E945E0091E29A95F1F700009B
:1001700081E00E945E0083EF91E00197F1F700C0FB
:10018000000086E00E945E008CE00E945E00089500
:10019000CF93DF9300D000D0CDB7DEB790E899833E
:1001A00090EC9A8394E99B8394ED9C838150FE01AB
:1001B000E60FF11D9081890F0E945E0081E28A9511
:1001C000F1F700000F900F900F900F90DF91CF91FB
:1001D00008951F93CF93DF93EC018881882351F01A
:1001E00010E00E947E001F5FFE01E10FF11D808183
:1001F0008111F7CFDF91CF911F910895CF92DF92B8
:10020000EF92FF920F931F93CF93DF93CDB7DEB79B
:10021000A0970FB6F894DEBF0FBECDBF80E00E945E
:100220004E000EE610E0F8019183808381E00E9489
:100230004E000F2EF0E7CF2EF0E0DF2EF02DF6016E
:100240009183808382E00E944E000F2EF2E7EF2E12
:10025000F0E0FF2EF02DF7019183808383E00E9470
:100260004E009093750080937400F8018081918115
:100270009C01220F331F220F331F820F931F282F41
:10028000392FA1E8B0E80E9453024AE050E0BE01D5
:100290006F5F7F4F880F892F881F990B91950E9460
:1002A0005F0261E083E00E94C800CE0101960E94D7
:1002B000E90080E690E00E94E900F60180819181EA
:1002C0009C01220F331F220F331F820F931F282FF1
:1002D000392FA1E8B0E80E9453024AE050E0BE0185
:1002E000675F7F4F880F892F881F990B91950E9418
:1002F0005F0261E08BE00E94C800CE0109960E9477
:10030000E90080E690E00E94E900F7018081918198
:100310009C01220F331F220F331F820F931F282FA0
:10032000392FA1E8B0E80E9453024AE050E0BE0134
:100330006F5E7F4F880F892F881F990B91950E94C0
:100340005F0262E083E00E94C800CE0141960E94F5
:10035000E90080E690E00E94E900F8018081918147
:100360009C01220F331F220F331F820F931F282F50
:10037000392FA1E8B0E80E9453024AE050E0BE01E4
:10038000675E7F4F880F892F881F990B91950E9478
:100390005F0262E08BE00E94C800CE0149960E9495
:1003A000E90080E690E00E94E900A0960FB6F8947C
:1003B000DEBF0FBECDBFDF91CF911F910F91FF9098
:1003C000EF90DF90CF90089580EF8ABB8FEF81BBD5
:1003D0000E9449000E949A0083EF91E00197F1F793
:1003E00000C0000061E081E00E94C80082E690E069
:1003F0000E94E90061E089E00E94C80085E690E083
:100400000E94E90062E081E00E94C80088E690E076
:100410000E94E90062E089E00E94C8008BE690E05B
:100420000E94E90000E710E0CEE6D0E00F2EF2E7F0
:10043000EF2EF0E0FF2EF02D0E94FE00F8018081EB
:100440009181C79718F40DC00E94FE0088819981A0
:100450008E3E9240C8F7F80180819181C797A0F73E
:100460001BC0F701808191818235934048F00E9442
:10047000FE00F7018081918182359340C0F70CC066
:10048000888199818E3E924038F00E94FE008881DA
:1004900099818E3E9240C8F783EF91E00197F1F782
:1004A00000C00000C9CFA29FB001B39FC001A39FAD
:1004B00001D0B29F700D811D1124911D0895FB0183
:1004C0009F01E8944230C4F04532B4F44A3029F434
:1004D00097FB1EF4909581959F4F642F77270E947C
:1004E0009002805D8A330CF0895D8193CB01009787
:1004F000A1F716F45DE251931082C9010C948002B9
:10050000DC01FC01672F71917723E1F7329704C07A
:100510007C916D9370836291AE17BF07C8F3089505
:10052000AA1BBB1B51E107C0AA1FBB1FA617B70719
:1005300010F0A61BB70B881F991F5A95A9F7809535
:0C0540009095BC01CD010895F894FFCF08
:0E054C0020004C3A00433A00523A00443A0074
:00000001FF
