S0170000746573742070726F6A6563742076322E737265636E
S11300000C942A000C9447000C9447000C9447006D
S11300100C9447000C9447000C9447000C94470040
S11300200C9447000C9447000C9447000C94470030
S11300300C9447000C9447000C9447000C94470020
S11300400C9447000C9447000C9447000C94470010
S11300500C94470011241FBECFE5D8E0DEBFCDBF0E
S113006011E0A0E6B0E0E0EBFCE002C005900D92E8
S1130070A233B107D9F721E0A2E3B1E001C01D9298
S1130080A234B207E1F70E94FC040C9456060C94C7
S1130090000095B3282F207F9F70922B95BBA898C2
S11300A0A998AA9A0000AA9831E23A95F1F70000BB
S11300B025B330E1839FC0011124922F9F70892BB7
S11300C085BBAA9A0000AA9881E28A95F1F70000FC
S11300D0089595B3282F207F9F70922B95BBA89AE3
S11300E0A998AA9A0000AA9825B330E1839FC00179
S11300F01124922F9F70892B85BBAA9A0000AA987D
S113010081E28A95F1F7000008951F93CF93DF935E
S1130110EC018881882351F010E00E9469001F5F80
S1130120FE01E10FF11D80818111F7CFDF91CF91A5
S11301301F910895CF93DF9300D000D0CDB7DEB7E1
S113014090E8998390EC9A8394E99B8394ED9C8343
S11301508150FE01E60FF11D9081890F0E94490034
S113016083EC99E00197F1F700C000000F900F9025
S11301700F900F90DF91CF9108958FEF84BBAA98D1
S113018083EF91E00197F1F700C0000083E30E9440
S1130190490091E29A95F1F7000082E30E94490038
S11301A021E22A95F1F7000088E20E94490081E2E9
S11301B08A95F1F700008EE00E94490091E29A9539
S11301C0F1F7000081E00E9449002FE78AE196E000
S11301D0215080409040E1F700C0000086E00E947A
S11301E0490021E22A95F1F7000008951ABA87E838
S11301F086B980EE87B908953D9A97B1907E97B9F4
S113020097B18770982B97B9369A349BFECF349A5E
S113021085B190E0089580E00E94FC004E97A8F01C
S1130220C09A83E294EF0197F1F700C0000080E0E8
S11302300E94FC0088B383E294EF0197F1F700C0B9
S1130240000080E00E94FC000895C098089581E0B9
S11302500E94FC004497A8F0C19A83E294EF0197AE
S1130260F1F700C0000080E00E94FC0088B383E244
S113027094EF0197F1F700C0000080E00E94FC00B9
S11302800895C198089582E00E94FC004497A8F064
S1130290C29A83E294EF0197F1F700C0000080E076
S11302A00E94FC0088B383E294EF0197F1F700C049
S11302B0000080E00E94FC000895C298089583E045
S11302C00E94FC004497A8F0C39A83E294EF01973C
S11302D0F1F700C0000080E00E94FC0088B383E2D4
S11302E094EF0197F1F700C0000080E00E94FC0049
S11302F00895C398089561E081E00E949A0082E71E
S113030090E00E9485002FE38DE093E0215080402F
S11303109040E1F700C0000062E081E00E949A0092
S113032083E890E00E9485002FE38DE093E0215064
S113033080409040E1F700C0000081E00E94490045
S113034061E081E00E949A0085E990E00E948500C6
S11303502FE38DE093E0215080409040E1F700C00E
S1130360000062E081E00E949A0087EA90E00E9427
S113037085002FE38DE093E0215080409040E1F729
S113038000C0000062E081E00E949A0088EB90E0E7
S11303900E9485002FE38DE093E02150804090403F
S11303A0E1F700C0000062E081E00E949A0089EC5D
S11303B090E00E9485002FE38DE093E0215080407F
S11303C09040E1F700C0000062E081E00E949A00E2
S11303D08AED90E00E9485002FE38DE093E02150A8
S11303E080409040E1F700C0000062E081E00E949C
S11303F09A008BEE90E00E94850062E081E00E940A
S11304009A008AEF90E00E9485002FE38DE093E04C
S1130410215080409040E1F700C0000081E00E943C
S1130420490008958FEF82BB83E294EF0197F1F7BF
S113043000C0000012BA83E294EF0197F1F700C004
S1130440000008950E940B010E9427010E944301AD
S11304500E945F010E9412020895809170009091A1
S1130460710001968A30910529F090937100809370
S113047070000DC0109271001092700080913801CC
S1130480909139010196909339018093380187EA5C
S113049091E60197F1F700C0000080913801909136
S11304A03901069769F4109239011092380180914C
S11304B06E0090916F00019690936F0080936E0090
S11304C083EC99E00197F1F700C0000080916E0081
S11304D090916F000A9769F410926F0010926E0069
S11304E08091360190913701019690933701809362
S11304F0360183EC99E00197F1F700C00000809188
S1130500360190913701069769F4109237011092E1
S1130510360180916C0090916D00019690936D006E
S113052080936C0083EC99E00197F1F700C0000020
S113053080916C0090916D000A9769F410926D009F
S113054010926C0080913401909135010196909342
S113055035018093340183EC99E00197F1F700C0F1
S1130560000080913401909135010697B9F41092FE
S1130570350110923401809132019091330100973A
S113058039F0019759F4109233011092320106C0E8
S113059081E090E0909333018093320180916A006E
S11305A090916B000A9769F410926B0010926A00A4
S11305B080916800909169000196909369008093FE
S11305C068008091680090916900039769F4109223
S11305D0690010926800809166009091670001960E
S11305E09093670080936600809166009091670005
S11305F00C9769F410926700109266008091640071
S113060090916500019690936500809364008091B9
S11306106400909165000A9769F410926D0010923D
S11306206C008091340190913501019690933501CD
S1130630809334010895CF92DF92EF92FF920F934B
S11306401F93CF93DF93CDB7DEB768970FB6F894B7
S1130650DEBF0FBECDBF80E00E94FC000F2EFAE388
S1130660CF2EF1E0DF2EF02DF6019183808381E01F
S11306700E94FC000F2EFCE3EF2EF1E0FF2EF02D84
S1130680F7019183808382E00E94FC000EE311E075
S1130690F8019183808383E00E94FC0090934101E0
S11306A0809340014AE050E0BE016F5F7F4FF60146
S11306B0808191810E94110661E089E00E949A0084
S11306C089E091E00E94850061E08BE00E949A003D
S11306D0CE0101960E9485008CE091E00E94850085
S11306E04AE050E0BE01675F7F4FF701808191814E
S11306F00E94110662E081E00E949A008EE091E07F
S11307000E94850062E08DE00E949A00CE01099665
S11307100E94850089E191E00E9485004AE050E052
S1130720BE016F5E7F4FF801808191810E941106A6
S113073061E081E00E949A008BE191E00E948500D3
S113074061E084E00E949A00CE0141960E948500F7
S113075085EA90E00E9485000E942D0268960FB6FB
S1130760F894DEBF0FBECDBFDF91CF911F910F91E3
S1130770FF90EF90DF90CF900895CF93DF93CDB7A4
S1130780DEB728970FB6F894DEBF0FBECDBF61E089
S113079081E00E949A008FE191E00E94850080919F
S11307A03201909133018130910549F461E08FE089
S11307B00E949A0086E291E00E9485000AC0892B7B
S11307C041F461E08FE00E949A0089E291E00E9486
S11307D0850061E08EE00E949A004AE050E0BE018C
S11307E06F5F7F4F80917000909171000E9411069D
S11307F0CE0101960E94850061E08DE00E949A007E
S11308004AE050E0BE016F5F7F4F809138019091C4
S113081039010E941106CE0101960E94850061E013
S11308208CE00E949A008AE30E94690061E08BE0F8
S11308300E949A004AE050E0BE016F5F7F4F8091B2
S11308406E0090916F000E941106CE0101960E94E5
S1130850850061E08AE00E949A004AE050E0BE010F
S11308606F5F7F4F80913601909137010E9411068E
S1130870CE0101960E94850061E089E00E949A0001
S11308808AE30E94690061E088E00E949A004AE0DD
S113089050E0BE016F5F7F4F80916C0090916D00BE
S11308A00E941106CE0101960E94850061E087E056
S11308B00E949A004AE050E0BE016F5F7F4F809132
S11308C03401909135010E941106CE0101960E94D7
S11308D0850062E081E00E949A008CE291E00E942F
S11308E0850062E08DE00E949A004AE050E0BE017B
S11308F06F5F7F4F80916A0090916B000E94110698
S1130900CE0101960E94850062E08CE00E949A006C
S11309104AE050E0BE016F5F7F4F80916800909184
S113092069000E941106CE0101960E94850062E0D2
S11309308BE00E949A008AE30E94690062E08AE0E8
S11309400E949A004AE050E0BE016F5F7F4F8091A1
S11309506600909167000E941106CE0101960E94E4
S1130960850062E089E00E949A004AE050E0BE01FE
S11309706F5F7F4F80916400909165000E94110623
S1130980CE0101960E94850062E087E00E949A00F1
S11309904AE050E0BE016F5F7F4F8091620090910A
S11309A063000E941106CE0101960E94850062E058
S11309B088E00E949A008AE30E94690062E086E06F
S11309C00E949A004AE050E0BE016F5F7F4F809121
S11309D06000909161000E941106CE0101960E9470
S11309E085000E942D0228960FB6F894DEBF0FBE34
S11309F0CDBFDF91CF9108950E94F6000E94BD0003
S1130A008FEF87BB84BB81BB0E947B010E94BD0327
S1130A100E9422022FE788E391E021508040904019
S1130A20E1F700C000000E94BD030E9422022FE7EC
S1130A3088E391E0215080409040E1F700C000003D
S1130A400E94BD030E9422022FE788E391E0215017
S1130A5080409040E1F700C000000E94BD030E9466
S1130A6022022FE788E391E0215080409040E1F793
S1130A7000C000000E94BD030E9422022FE788E309
S1130A8091E0215080409040E1F700C000000E94B6
S1130A90BD030E9422022FE788E391E021508040A9
S1130AA09040E1F700C000000E94BD030E942202B2
S1130AB02FE788E391E0215080409040E1F700C0A7
S1130AC000000E94BD030E9422022FE788E391E008
S1130AD0215080409040E1F700C000000E94BD0317
S1130AE00E9422022FE788E391E021508040904049
S1130AF0E1F700C000000E94BD030E9422022FE71C
S1130B0088E391E0215080409040E1F700C000006C
S1130B1081E00E9449000E941B030E9422022FE7E9
S1130B2088E391E0215080409040E1F700C000004C
S1130B300E941B030E9422022FE788E391E02150C8
S1130B4080409040E1F700C000000E941B030E9417
S1130B5022022FE788E391E0215080409040E1F7A2
S1130B6000C000000E941B030E9422022FE788E3BA
S1130B7091E0215080409040E1F700C000000E94C5
S1130B801B030E9422022FE788E391E0215080405A
S1130B909040E1F700C000000E941B030E94220263
S1130BA02FE788E391E0215080409040E1F700C0B6
S1130BB000000E941B030E9422022FE788E391E0B9
S1130BC0215080409040E1F700C000000E941B03C8
S1130BD00E9422022FE788E391E021508040904058
S1130BE0E1F700C000000E941B030E9422022FE7CD
S1130BF088E391E0215080409040E1F700C000007C
S1130C000E941B030E9422022FE788E391E02150F7
S1130C1080409040E1F700C0000081E00E9449005C
S1130C20F5CEFB019F01E8944230C4F04532B4F4A0
S1130C304A3029F497FB1EF4909581959F4F642FB9
S1130C4077270E944206805D8A330CF0895D819388
S1130C50CB010097A1F716F45DE251931082C9010C
S1130C600C943206DC01FC01672F71917723E1F7C4
S1130C70329704C07C916D9370836291AE17BF0765
S1130C80C8F30895AA1BBB1B51E107C0AA1FBB1FD1
S1130C90A617B70710F0A61BB70B881F991F5A9504
S1130CA0A9F780959095BC01CD010895F894FFCFE4
S1130CB00100060001000200020005000900050011
S1130CC00900424C41434B5F484154455253205E16
S1130CD05F5E0057452052204A55535420545259C0
S1130CE0494E4721004D4144452042593A5F202056
S1130CF0202020202020004D41484D4F55442053B2
S1130D00414144204D534100414244454C4B4144F0
S1130D10455220412E4D2E450041424420454C541D
S1130D204157414220482E452E00454C2D534159F0
S1130D304544205A454852592020004D41484D4FC2
S1130D405544204548414220200041686D65642097
S1130D5047616D616C20202000543D0043004741F1
S1130D605320524154494F3A00250049523D004313
S1130D704C4F434B3D00414D00504D0044415445C0
S1050D803D0030
S9030000FC
