S01B000055434F53325F746865546869726453686F6F742E73726563F5
S113000021C1000027C0000027C0000027C0000055
S113001027C0000027C0000027C0000027C0000040
S113002027C0000027C0000027C0000027C0000030
S113003027C0000027C0000027C0000027C0000020
S113004027C0000027C0000027C0000027C0000010
S113005027C00000F7C00000F5C00000F3C0000096
S1130060F1C00000EFC00000EDC00000EBC00000D4
S1130070E9C00000E7C00000E5C00000E3C00000E4
S1130080E1C00000DFC00000DDC00000DBC00000F4
S1130090D9C00000D7C00000D5C00000D3C0000004
S11300A0EDC00000CFC00000CDC00000CBC00000F8
S11300B0C9C00000C7C00000C5C00000C3C0000024
S11300C0C1C00000BFC00000BDC00000BBC0000034
S11300D0B9C00000B7C00000B5C00000B3C0000044
S11300E0B1C00000AFC00000ADC00000ABC0000054
S11300F0A9C00000A7C00000A5C00000A3C0000064
S1130100A1C000009FC000009DC000009BC0000073
S113011099C0000097C0000095C0000093C0000083
S113012091C000008FC000008DC000008BC0000093
S113013089C0000087C0000085C0000083C00000A3
S113014081C000007FC000007DC000007BC00000B3
S113015079C0000077C0000075C0000073C00000C3
S113016071C000006FC000006DC000006BC00000D3
S113017069C0000067C0000065C0000063C00000E3
S113018061C000005FC000005DC000005BC00000F3
S113019059C0000057C0000055C0000053C0000003
S11301A051C000004FC000004DC000004BC0000013
S11301B049C0000047C0000045C0000043C0000023
S11301C041C000003FC000003DC000003BC0000033
S11301D039C0000037C0000035C0000033C0000043
S11301E031C000002FC000002DC000002BC0000053
S11301F029C0000027C0000025C0000023C0000063
S113020021C000001FC000001DC000001BC0000072
S113021019C0000017C0000015C0000013C0000082
S113022011C000000FC000000DC000000BC0000092
S113023009C0000007C0000005C0000003C00000A2
S113024001C0000011241FBECFE5D8E0DEBFCDBF42
S113025011E0A0E6B0E0E4E5FEE102C005900D92F5
S1130260AC38B107D9F72EE0ACE8B1E001C01D927B
S1130270AC3EB207E1F743D10C94280F0F920FB6AE
S11302800F921F9211242F923F924F925F926F927E
S11302907F928F929F92AF92BF92CF92DF92EF9212
S11302A0FF920F931F932F933F934F935F936F93FB
S11302B07F938F939F93AF93BF93CF93DF93EF93EA
S11302C0FF9300914A0B039500934A0B013041F4CC
S11302D0ADB7BEB7C0914B0BD0914C0BA993B9935A
S11302E039D396D2FF91EF91DF91CF91BF91AF9126
S11302F09F918F917F916F915F914F913F912F913A
S11303001F910F91FF90EF90DF90CF90BF90AF902F
S11303109F908F907F906F905F904F903F902F9021
S11303201F900F900FBE0F9018958FB7F8940895F3
S11303308FBF089525D20091F30703950093F30727
S1130340A091090BB0910A0BCD91CDBFDD91DEBF19
S1130350FF91EF91DF91CF91BF91AF919F918F91D9
S11303607F916F915F914F913F912F911F910F91C9
S1130370FF90EF90DF90CF90BF90AF909F908F90C1
S11303807F906F905F904F903F902F901F900F90B1
S11303900FBE0F9018950F920FB60F921F92112453
S11303A02F923F924F925F926F927F928F929F9281
S11303B0AF92BF92CF92DF92EF92FF920F931F936F
S11303C02F933F934F935F936F937F938F939F9359
S11303D0AF93BF93CF93DF93EF93FF93ADB7BEB7C4
S11303E0C0914B0BD0914C0BA993B993C9D10091F7
S11303F0FA070093C309A091090BB0910A0BA093CB
S11304004B0BB0934C0BCD91CDBFDD91DEBFFF9173
S1130410EF91DF91CF91BF91AF919F918F917F9198
S11304206F915F914F913F912F911F910F91FF9089
S1130430EF90DF90CF90BF90AF909F908F907F9080
S11304406F905F904F903F902F901F900F900FBE32
S11304500F90089595D10091FA070093C309A091D4
S1130460090BB0910A0BA0934B0BB0934C0BCD919D
S1130470CDBFDD91DEBFFF91EF91DF91CF91BF91B1
S1130480AF919F918F917F916F915F914F913F9128
S11304902F911F910F91FF90EF90DF90CF90BF901D
S11304A0AF909F908F907F906F905F904F903F9010
S11304B02F901F900F900FBE0F90189508950895D8
S11304C008950895089508950895FFCFFFCF20E07B
S11304D030E041E060E080E00E94C00CF8CF24EFFF
S11304E031E040E060E080E00E94C00CF8CF2AEFE9
S11304F030E040E060E080E00E94C00CF8CF8F92D2
S11305009F92AF92BF92CF92DF92EF92FF920F939E
S11305101F9325D31F9283E08F93812C912C0F2E50
S1130520F4E6AF2EB12CC12CD12CF02D0F2EF8E611
S1130530EF2EF7E0FF2EF02D02E010E022E04BEC6E
S113054057E060E070E080E493E00E94E20BBED1EB
S11305500F900F9080E090E01F910F91FF90EF902B
S1130560DF90CF90BF90AF909F908F9008958F921F
S11305709F92AF92BF92CF92DF92EF92FF920F932E
S11305801F93CF931F92C3E0CF93812C912C0F2EF6
S1130590FCE2AF2EBB24B394C12CD12CF02D0F2E32
S11305A0FCE8EF2EF1E0FF2EF02D03E010E023E055
S11305B047EB52E060E070E085E692E00E94E20BD7
S11305C01F92CF930F2EF8EBEF2EF2E0FF2EF02DBB
S11305D004E010E024E043EE53E060E070E087E7DD
S11305E092E00E94E20B1F92CF930F2EF4EEEF2EB7
S11305F0F3E0FF2EF02D05E010E025E04FE055E09C
S113060060E070E08FE692E00E94E20B1F92CF93CD
S11306100F2EF0E1EF2EF5E0FF2EF02D06E010E0B6
S113062026E04BE356E060E070E087E692E00E944B
S1130630E20B1F92CF930F2EFCE3EF2EF6E0FF2E7A
S1130640F02D07E010E027E047E657E060E070E0B7
S113065086E692E00E94E20B8DB79EB70A960FB62B
S1130660F8949EBF0FBE8DBFCF911F910F91FF9045
S1130670EF90DF90CF90BF90AF909F908F900895B0
S11306803FD175DF8FEFC5C608951092CD07109244
S1130690CC070895089512CF089511CF089510CF6F
S11306A008950FCF0895092E000CAA0BBB0BFA0175
S11306B08083319790833197A0833197108231974B
S11306C080E8808331971082319782E0808331976C
S11306D083E08083319784E08083319785E0808351
S11306E0319786E08083319787E08083319788E073
S11306F08083319789E08083319780E180833197CB
S113070081E18083319782E18083319783E1808323
S1130710319784E18083319785E18083319786E145
S11307208083319787E18083319788E18083319793
S113073089E18083319780E28083319781E28083ED
S1130740319782E28083319783E28083319760839B
S11307503197CB019083319786E28083319787E28A
S11307608083319788E28083319789E2808331974F
S113077080E38083319781E38083CA01849708955D
S1130780A1CE0895A0CE08959FDE8091CC079091CC
S1130790CD0701968436910528F49093CD07809374
S11307A0CC0708951092CD071092CC070C94510EEB
S11307B008950895E0910D0BF0E0E258FF4F808119
S11307C0E82FF0E0E25FF44FE081F0E0E258FF4F01
S11307D0880F880F880F9081890F8093FA070895F6
S11307E0A4DD4091F4075091F5076091F6077091EC
S11307F0F7074F5F5F4F6F4F7F4F4093F40750935E
S1130800F5076093F6077093F70792DD48DFE8CFAA
S1130810CF938091F307813009F044C086DDC82F5F
S113082080914A0B882329F0815080934A0B8111CF
S113083037C08091F007811133C0BCDF8091FA0783
S1130840E82FF0E0EE0FFF1FE859F14F0190F0811F
S1130850E02DF0930A0BE093090B9091C3098917DB
S1130860F9F086A197A1A0A5B1A50196A11DB11D7E
S113087086A397A3A0A7B1A78091890A90918A0A19
S1130880A0918B0AB0918C0A0196A11DB11D809391
S1130890890A90938A0AA0938B0AB0938C0ADADDB2
S11308A08C2F46DDCF9108958091F307813069F450
S11308B03CDD90914A0B911107C09091F0079F3F46
S11308C019F09F5F9093F00733CD08958091F3075B
S11308D0811115C06FDFE091FA07E093C309F0E0DE
S11308E0EE0FFF1FE859F14F8081918190930A0B1D
S11308F08093090B90934C0B80934B0B1BCD089565
S113090062E070E080E090E0FCD70FDD1092F40725
S11309101092F5071092F6071092F70709DD64E6C6
S113092070E080E090E0EDD700DD4091F407509155
S1130930F5076091F6077091F70740938F0A50937B
S1130940900A6093910A7093920A91E09093670ED3
S1130950EFCC08951F93CF93DF9316DFE6DC40912D
S1130960510B5091520B6091530B7091540B4F5F8C
S11309705F4F6F4F7F4F4093510B5093520B6093D7
S1130980530B7093540BD4DC8091F307813009F03E
S11309904DC08091560A813009F448C040F082303D
S11309A021F481E08093560A02C01092560AC09145
S11309B0C409D091C50988A18F33C1F111E0B5DC18
S11309C04A8D5B8D6C8D7D8D4115510561057105D9
S11309D031F141505109610971094A8F5B8F6C8F64
S11309E07D8F452B462B472BD1F49E8D292F2773C2
S11309F021F0987C9E8F1F8F01C01F8E9E8D93FDCA
S1130A000EC020910D0B9CA1922B90930D0BEAA18B
S1130A10F0E0E25FF44F20819BA1922B90830E843F
S1130A20DF85C02D85DC88A18F3349F6DF91CF9116
S1130A301F9108950895E0914B0BF0914C0B938B0B
S1130A40828B22A1DC01A20FB11D16963C91169750
S1130A5023A1232B16962C93DC0115963C91159714
S1130A6024A1232B15962C93A2A1B0E083A18095F9
S1130A70A25FB44F9C9189238C93811107C084A1F8
S1130A80809590910D0B892380930D0B0895FC01A3
S1130A9082A193A19095DB01A80FB11D16962C910C
S1130AA01697922316969C93911106C084A1809563
S1130AB0FB019581892385830895CF93DC011596E5
S1130AC0EC91F0E0E258FF4FC081AC2FB0E0FC01A4
S1130AD0EA0FFB1FE681F0E0E258FF4FCC0FCC0F8A
S1130AE0CC0F3081C30FEC2FF0E0EE0FFF1FE8595D
S1130AF0F14F0190F081E02D128E138E148E158E1D
S1130B00758B648B4095368D4323468F278F43FD29
S1130B100CC030910D0B24A1232B20930D0BA25F4D
S1130B20B44F3C9123A1232B2C93BC01CF01AFDF05
S1130B308C2FCF910895FC01158236960E96119252
S1130B40E817F907E1F708956115710539F0FC011B
S1130B50860F971F1192E817F907E1F708957F921E
S1130B608F929F92AF92BF92CF92DF92EF92FF92B9
S1130B700F931F93CF93DF931F92CDB7DEB785DD1D
S1130B801092510B1092520B1092530B1092540B63
S1130B9010924A0B1092F0071092960A1092F307E3
S1130BA01092890A10928A0A10928B0A10928C0A67
S1130BB01092F4071092F5071092F6071092F707B7
S1130BC01092E80E1092E90E1092EA0E1092EB0EBB
S1130BD010928F0A1092900A1092910A1092920A1F
S1130BE01092670E10920D0BEEE0FBE086E19BE0A5
S1130BF01192E817F907E1F71092C3091092FA0766
S1130C0010920A0B1092090B10924C0B10924B0B82
S1130C106CE672E089EF9BE097DF60E870E088E6BD
S1130C209EE092DFE9EFFBE047E25EE020E630E0A1
S1130C30CF01CE969787868731AF20AFFC0184170A
S1130C409507B1F71092360E1092350E80E690E0BB
S1130C509093600E80935F0E1092C5091092C409A0
S1130C6089EF9BE09093940A8093930A60E770E085
S1130C7089E89BE069DFE9E8FBE02BEE3BE0CF018C
S1130C800E96108292838183FC0128173907B9F7E5
S1130C901092EB0B1092ED0B1092EC0B89E89BE099
S1130CA09093490B8093480B5AD2A1D2C6D21F927B
S1130CB00F2EF3E07F2EF02D7F92812C912C0F2E9E
S1130CC0F2E3AF2EB12CC12CD12CF02D0F2EF7E571
S1130CD0EF2EFBE0FF2EF02D0FEF1FEF2FE348E880
S1130CE05BE060E070E080EF93E06CD5AE014F5FB5
S1130CF05F4F62E670E08FE359D41F927F920F2E0C
S1130D00F7E5EF2EFAE0FF2EF02D0EEF1FEF2EE3A6
S1130D1048E85AE060E070E08EE497E053D5AE0115
S1130D204F5F5F4F60E770E08EE340D4C0D7B2DC22
S1130D3040DD0F900F900F900F900F90DF91CF91A7
S1130D401F910F91FF90EF90DF90CF90BF90AF90E5
S1130D509F908F907F900895CF93E7DAC82F80916A
S1130D604A0B811137C08091F007811133C022DD15
S1130D708091FA07E82FF0E0EE0FFF1FE859F14FDA
S1130D800190F081E02DF0930A0BE093090B909110
S1130D90C3098917F9F086A197A1A0A5B1A5019669
S1130DA0A11DB11D86A397A3A0A7B1A78091890A0D
S1130DB090918A0AA0918B0AB0918C0A0196A11D88
S1130DC0B11D8093890A90938A0AA0938B0AB093E9
S1130DD08C0AE1DA8C2FACDACF9108958091F30775
S1130DE08130B1F4A2DA90914A0B911110C0909124
S1130DF0F007992351F091509093F007911103C09B
S1130E0097DAAACF089594CA089592CA089590CA09
S1130E100895EF92FF921F93CF93DF93CDB7DEB780
S1130E2028970FB6F894DEBF0FBECDBF0F2EF8E69D
S1130E30EF2EFEE0FF2EF02D10E0BE016F5F7F4F1E
S1130E40812FF3D3811118C0D701ED91FC91309714
S1130E5099F0E130F10581F0248135818681978113
S1130E60820F931F93AB82AB8D819E81AF81B88536
S1130E7084AB95ABA6ABB7AB1F5FB2E0EB0EF11C36
S1130E801034D9F628960FB6F894DEBF0FBECDBF46
S1130E90DF91CF911F91FF90EF9008958091670E9D
S1130EA0811109C068EC70E080E090E02AD580915F
S1130EB0670E8823B9F360918F0A7091900A80912C
S1130EC0910A9091920A24E630E040E050E085D700
S1130ED020938F0A3093900A4093910A5093920A78
S1130EE0232B242B252B21F41092950A8FEF07D462
S1130EF01CDAE82F20918F0A3091900A4091910AD0
S1130F005091920AA4E6B0E099D76093F4077093E5
S1130F10F5078093F6079093F7078E2F09DAC4E656
S1130F2004DA4091F4075091F5076091F607709147
S1130F30F7074093E80E5093E90E6093EA0E70931E
S1130F40EB0E1092F4071092F5071092F607109228
S1130F50F707EED96091E80E7091E90E8091EA0EE0
S1130F609091EB0E20918F0A3091900A4091910A52
S1130F705091920A32D78C2F821B8093950A91DB71
S1130F8048DF64E670E080E090E0BBD4C9CF2F92E4
S1130F903F924F925F926F927F929F92AF92BF92D5
S1130FA0CF92DF92EF92FF920F931F93CF93DF9331
S1130FB000D000D000D0CDB7DEB7982E7A836983F5
S1130FC01A013C832B83B1D92091930A3091940A5E
S1130FD03E832D832115310509F4A7C0D9011E963E
S1130FE02D913C911F973093940A2093930AA0D992
S1130FF029813A81ED81FE813183208390A2168E6E
S1131000178E128E138E148E158ED382C282E682B0
S1131010F7820087118735822482B386A2862B81CA
S11310203C813587248715A2392D3695369536951A
S113103032A3292D277021A381E090E0A0E0B0E045
S1131040AC01BD0104C0440F551F661F771F3A95BC
S1131050D2F744A304C0880F991FAA1FBB1F2A9567
S1131060D2F783A3138A128A178A168A158A148AD6
S113107016A217A210A611A616A617A610AA11AAA0
S113108012A613A614A615A613AA12AA14AA15AA80
S113109016AA17AA80E690E091AF80AF12AE13AE05
S11310A014AE15AECF016EDB40D9292D30E0220FEE
S11310B0331FF901E859F14F2D813E81318320839B
S11310C037D98D819E81E7DA30D9E091C409F09156
S11310D0C509AD81BE811F96FC93EE931E97519670
S11310E01C921E925097309711F0B18BA08BED811A
S11310F0FE81F093C509E093C40920910D0B94A1DE
S1131100922B90930D0BDF01E2A1F0E0E25FF44F2C
S1131110208193969C91922B90839091960A9F5F45
S11311209093960A05D980E002C002D982E42696FB
S11311300FB6F894DEBF0FBECDBFDF91CF911F91E4
S11311400F91FF90EF90DF90CF90BF90AF909F9062
S11311507F906F905F904F903F902F90089568E339
S113116070E08BEF97E0F0DCEBEFF7E04CE258E057
S113117020E630E0CF010796108292838183368384
S11311802583FC0184179507A9F7EBEFF7E011AA73
S113119013AA12AA80E690E097AB86ABF093660E92
S11311A0E093650E0895CF93DF93FC01C281D38150
S11311B0A081B181209759F4C681D781BA83A983CC
S11311C0109769F013961C921E92129708C0B98367
S11311D0A883109721F01396DC93CE931297048082
S11311E0F581E02D178A168ADF91CF91089560E981
S11311F070E086EC99E0A8DCE6ECF9E044E45AE01F
S113120020E630E0CF01429693838283318B208B9A
S1131210FC0184179507B1F71092470A1092460A09
S113122080E690E09093550A8093540A86EC99E006
S11312309093980A8093970A089560E770E089E98B
S11312409AE082DCE9E9FAE02BEF3AE0CF010E966E
S113125091838083FC0182179307C1F71092FC0AE3
S11312601092FB0A89E99AE090930C0B80930B0B84
S113127008950F931F93CF93DF9320914A0B21116D
S11312801AC08C0152D8C091480BD091490B2097B9
S1131290A9F029813A813093490B2093480B48D80F
S11312A083E088831C830B831A821982CE0143DC7A
S11312B08C2F9D2F06C080E090E003C039D880E0D9
S11312C090E0DF91CF911F910F910895BF92CF923B
S11312D0DF92EF92FF920F931F93CF93DF93F90165
S11312E0DC013C91333019F081E0808354C02091BB
S11312F04A0B222319F082E080834DC02091F0072D
S1131300222319F08DE0808346C0EF016A017B013E
S11313108C010BD8B82EF80183819481009739F0A1
S11313200197948383838B2D03D8188234C0E09172
S11313304B0BF0914C0B868D8160868F178EC28E7D
S1131340D38EE48EF58EC80176DB8B2D0E94980136
S113135003DD0E949501F82EE0914B0BF0914C0BAC
S1131360978D992319F0923019F005C0188208C09E
S11313708EE0888305C0B801CF0189DB8AE08883C9
S1131380E0914B0BF0914C0B168E178E138A128A38
S11313908F2D0E949801DF91CF911F910F91FF90A3
S11313A0EF90DF90CF90BF9008950F931F93CF934A
S11313B0DF93FC012081233029F5EC010E94950183
S11313C0082F1D81112361F020E041E060E070E00E
S11313D0CE0173DB802F0E949801BEDC10E013C0A5
S11313E08B819C818F3FFFEF9F0739F001969C838F
S11313F08B83802F0E94980106C0802F0E94980141
S113140013E301C011E0812FDF91CF911F910F9160
S11314100895EF92FF920F931F93CF93DF93082FBA
S1131420C0914A0BC111B7C08F3309F4B6C00E94F2
S11314309501D82F0F3F29F4E0914B0BF0914C0B01
S113144000A110E0F801EE0FFF1FE859F14FE08012
S1131450F180E114F10429F48D2F0E949801C3E472
S11314609DC081E0E816F10429F48D2F0E949801B3
S1131470CDE394C0D7019296EC919297F0E09396C5
S11314808C9193978095E25FF44F908189238083B8
S1131490811108C094968C91809590910D0B8923AD
S11314A080930D0BF701628973896115710511F041
S11314B0C701EDDAD70156968D919C915797009705
S11314C009F071DEF701128E138E148E158E168EAE
S11314D0178E8091F0078F3F19F08F5F8093F0078C
S11314E08D2F0E949801A6DA0E949501D82F809131
S11314F0F007882319F081508093F007C701CDD8F5
S11315008091960A81508093960A000F111FF8016A
S1131510E859F14F11821082D7015096ED91FC9158
S11315205197309779F41E96ED91FC911F97118A8B
S1131530108A1E968D919C911F979093C509809354
S1131540C40911C0D7011E968D919C911F9797874E
S113155086871E96ED91FC911F9750968D919C91D4
S11315605197918B808B8091930A9091940AF70103
S113157097878687F092940AE092930A80E690E037
S113158091AF80AF8D2F0E9498018091F307813035
S113159029F4E2DB03C0C0E401C0CEE38C2FDF9169
S11315A0CF911F910F91FF90EF900895EF92FF92CA
S11315B00F931F93CF93C82F7B018A0180914A0B0D
S11315C0882321F082E1FA01808329C00E949501D9
S11315D0CF3F29F4E0914B0BF0914C0BC0A1EC2FC1
S11315E0F0E0EE0FFF1FE859F14F0190F081E02D7C
S11315F0309731F40E94980183E4F80180830FC08E
S1131600E130F10531F40E94980183E4F80180830C
S113161006C0F1AEE0AE0E949801F8011082CF91AD
S11316201F910F91FF90EF900895CF92DF92EF9268
S1131630FF920F931F93CF93DF93C82F8B01FB016E
S113164010821182128213821482158216821782EA
S11316500E949501CF3F29F4E0914B0BF0914C0B84
S1131660C0A1EC2FF0E0EE0FFF1FE859F14F0190FD
S1131670F081E02D309721F40E94980183E436C074
S1131680E130F10521F40E94980183E42FC0928592
S113169090FD04C00E94980185E428C0C680D780CC
S11316A0E084F184C481D5810E949801FE013196C1
S11316B0888181110AC080E090E0DC010196A11DBF
S11316C0B11D21912223D1F303C080E090E0DC011D
S11316D0F80180839183A283B383C81AD90AEA0AE2
S11316E0FB0AC482D582E682F78280E0DF91CF9143
S11316F01F910F91FF90EF90DF90CF900895CF93BB
S1131700DF93C82F0E949501CF3F39F4E0914B0B32
S1131710F0914C0BC0A1D1E008C0E0914B0BF091CB
S11317204C0BD1E090A19C13D0E0EC2FF0E0EE0F35
S1131730FF1FE859F14F0190F081E02D309721F41B
S11317400E94980188E424C0E130F10521F40E944C
S1131750980183E41DC0A2A1B0E093A19095A25F7B
S1131760B44F2C9192239C93911107C094A190950E
S113177020910D0B922390930D0B968D9860968F6C
S11317800E949801D13019F4E7DA80E001C080E0CA
S1131790DF91CF910895237033272330310589F4E5
S11317A0411551056105710561F0E82FF92F41508C
S11317B051096109710911924115510561057105BC
S11317C0B1F708953F924F925F926F927F928F92FA
S11317D09F92AF92BF92CF92DF92EF92FF920F93BC
S11317E01F93CF93DF93CDB7DEB72C970FB6F89442
S11317F0DEBF0FBECDBF9E838D8378876F835A87EC
S11318004987322E1C870B872701A982BA82CB8293
S1131810DC8264010E94950190904A0B992039F072
S11318200E9498010F2EFCE39F2EF02D51C0632CD3
S1131830712CF301EE0FFF1FE859F14F2081318124
S1131840232B09F03FC0F301EE0FFF1FE859F14FBE
S113185021E030E0318320830E94980128A139A13E
S113186049815A816B817C81C70195DF28A139A107
S113187049855A856F8178858D819E810E945303A5
S1131880A8A0B9A0E980FA800B811C812B853C8536
S1131890A201BC01832D7BDBD82E811106C080916F
S11318A0F3078130A9F458DA13C00E949501F301BB
S11318B0EE0FFF1FE859F14F118210820E94980128
S11318C09D2C06C00E9498010F2EF8E29F2EF02D49
S11318D0892D2C960FB6F894DEBF0FBECDBFDF91D5
S11318E0CF911F910F91FF90EF90DF90CF90BF9019
S11318F0AF909F908F907F906F905F904F903F90AC
S11319000895CF92DF92EF92FF9220914A0B21111A
S113191032C02091F00721112EC061157105810597
S1131920910549F16B017C010E949501A0914B0B3B
S1131930B0914C0B9296EC919297F0E093969C9117
S113194093979095E25FF44F2081922390839111B5
S113195009C094969C919497909520910D0B922395
S113196090930D0B5A96CD92DD92ED92FC925D9779
S11319700E949801F1D9FF90EF90DF90CF900895E5
S1131980CF92DF92EF92FF92CF9390914A0B9111F5
S113199030C0C091F007C1112EC0F901582F262F75
S11319A030E0ACE3B0E03BD26B017C01C40ED11C4F
S11319B0E11CF11C252F30E0A0E1BEE030D2A701EC
S11319C09601260F371F481F591FA8EEB3E036D2E1
S11319D06B017C019F0123D228EE33E040E050E00C
S11319E0FCD1C701B601620F731F841F951F89DFE5
S11319F003C0C5E501C0C2E38C2FCF91FF90EF90E7
S1131A00DF90CF9008950F931F93CF93DF93DC0162
S1131A1083E058968C9358976130C9F451960D9190
S1131A201D912D913C91549740914D0B50914E0B2B
S1131A3060914F0B7091500B400F511F621F731F29
S1131A4019964D935D936D937C931C9736C01D96A8
S1131A504D915D916D917C915097411551056105B2
S1131A607105C9F451960D911D912D913C91549796
S1131A7040914D0B50914E0B60914F0B7091500B58
S1131A80400F511F621F731F19964D935D936D9301
S1131A907C931C9712C000914D0B10914E0B20911A
S1131AA04F0B3091500B400F511F621F731F19963B
S1131AB04D935D936D937C931C971996ED91FC91D6
S1131AC01A97E770FF27EF01CC0FDD1FCC0FDD1F46
S1131AD0C053D84F0990D881C02D209789F4EE0FB8
S1131AE0FF1FEE0FFF1FE053F84FB183A08316963C
S1131AF01C921E92159781E090E09383828313C019
S1131B00EE0FFF1FEE0FFF1FE053F84FB183A083CA
S1131B101696DC93CE931597B887AF838281938111
S1131B2001969383828318961C921E921797DF91D5
S1131B30CF911F910F910895CF93DF93EC012985E5
S1131B403A8527703327F901EE0FFF1FEE0FFF1FB1
S1131B50E053F84F408151818417950791F4AD818A
S1131B60BE81F901EE0FFF1FEE0FFF1FE053F84F88
S1131B70B183A083109789F018961C921E92179730
S1131B800CC0AF81B885ED81FE811696FC93EE936F
S1131B901597309711F0B087A78391E0988F1E8234
S1131BA01D8218861F82220F331F220F331FF90153
S1131BB0E053F84F82819381019793838283DF916D
S1131BC0CF910895CF93DF931F92CDB7DEB768947A
S1131BD0DD24D1F89E012F5F3F4F40E050E0BA0171
S1131BE08091F1079091F20771DB0E945404809177
S1131BF04D0B90914E0BA0914F0BB091500B019651
S1131C00A11DB11D80934D0B90934E0BA0934F0BD0
S1131C10B093500B87709927880F991F880F991FCD
S1131C20FC01E053F84F0081118101151105B9F150
S1131C30D8011596EC9015971696FC901697199660
S1131C404D915D916D917C911C9780914D0B90917C
S1131C504E0BA0914F0BB091500B481759076A07D0
S1131C607B07C1F4C80168DFF8018789823021F459
S1131C7061E0C801C8DE01C0D08ED8011196ED9193
S1131C80FC911297309731F013966D917C911497D3
S1131C90C80109950E2D1F2D0115110549F69ED871
S1131CA099CF8091F1079091F2077FCB08958F929D
S1131CB09F92AF92BF92CF92DF92EF92FF920F93D7
S1131CC01F93CF93DF931F92CDB7DEB760E971E026
S1131CD083E398E00E94A40560E270E080ED97E061
S1131CE00E94A405E3E3F8E06AEA79E044E620E62A
S1131CF030E0CF0149964083108E96838583368BDE
S1131D00258BFC0186179707A1F784E68093AA091F
S1131D101092C2091092B0091092AF0980E690E0C7
S1131D209093C0098093BF0910924D0B10924E0BF3
S1131D3010924F0B1092500B1092F9071092F80763
S1131D4080E190E090938E0A80938D0A83E398E07B
S1131D509093CF078093CE0781E090E08ADA909346
S1131D60560B8093550B80E090E083DA9093F20752
S1131D708093F1071F9283E08F93812C912C0F2E77
S1131D80F2E3AF2EB12CC12CD12CF02D0F2EF6E1A5
S1131D90EF2EFBE0FF2EF02D0DEF1FEF2DE347E4B8
S1131DA05BE060E070E082EE9DE00CDDAE014F5F31
S1131DB05F4F6EE771E08DE3F9DB0F900F900F90AA
S1131DC0DF91CF911F910F91FF90EF90DF90CF9013
S1131DD0BF90AF909F908F900895A1E21A2EAA1BF6
S1131DE0BB1BFD010DC0AA1FBB1FEE1FFF1FA217C7
S1131DF0B307E407F50720F0A21BB30BE40BF50BC4
S1131E00661F771F881F991F1A9469F7609570954C
S1131E10809590959B01AC01BD01CF010895A29FCF
S1131E20B001B39FC001A39F700D811D1124911DAA
S1131E30B29F700D811D1124911D0895F0DFA59F9F
S1131E40900DB49F900DA49F800D911D11240895B1
S1071E50F894FFCF30
S1131E543F0075432F4F532D49492049646C650055
S1131E6475432F4F532D4949205374617400000066
S1131E74010002000100030001000200010004004B
S1131E84010002000100030001000200010005003A
S1131E94010002000100030001000200010004002B
S1131EA40100020001000300010002000100060019
S1131EB4010002000100030001000200010004000B
S1131EC401000200010003000100020001000500FA
S1131ED401000200010003000100020001000400EB
S1131EE401000200010003000100020001000700D8
S1131EF401000200010003000100020001000400CB
S1131F0401000200010003000100020001000500B9
S1131F1401000200010003000100020001000400AA
S1131F240100020001000300010002000100060098
S1131F34010002000100030001000200010004008A
S1131F440100020001000300010002000100050079
S1131F54010002000100030001000200010004006A
S1131F6401000200010003000100020001007543A6
S10F1F742F4F532D494920546D7200007A
S9030000FC
