S019000074696D65725F746573745F686F7373616D2E73726563E1
S11300000C942A000C9434000C9434000C943400A6
S11300100C9434000C9434000C9434000C9434008C
S11300200C9434000C9434000C9434000C9434007C
S11300300C9434000C9434000C9434000C9434006C
S11300400C9434000C9434000C9434000C9434005C
S11300500C94340011241FBECFE5D8E0DEBFCDBF21
S11300600E9436000C9446000C9400008AB3816010
S11300708D7F8ABBD99AC99907C0D89A8BE49DE130
S11300800197F1F700C00000D898F5CFF894FFCF9E
S9030000FC
