:020000020000FC
:1000000008E00EBF0FE50DBF0FEF0ABB01BB10E00C
:1000100041E00E9414004A95E1F741E00E94280067
:100020004A95E1F70C94080008E020E030E0F6E0A3
:10003000E0E0E20F14911BBBF6E0E0EAE30F14915D
:1000400012BB239533950E9456030A9581F70895B4
:1000500008E020E030E0F6E0E0E4E20F14911BBBA2
:10006000F6E0E0EAE30F149112BB239533950E946A
:0800700056030A9581F708957B
:0806000028381020107C92380C
:0806400028381008927C1038E4
:1006A0007FBFDFEFF7FBFDFE0C9408004AE05AE045
:1006B00000000000000000005A95D1F74A95B9F7F4
:0206C00008959B
:00000001FF
