:100000000C942A000C9434000C9434000C943400AA
:100010000C9434000C9434000C9434000C94340090
:100020000C9434000C9434000C9434000C94340080
:100030000C9434000C9434000C9434000C94340070
:100040000C9434000C9434000C9434000C94340060
:100050000C94340011241FBECFE5D8E0DEBFCDBF25
:100060000E9436000C945B000C9400008FEF8ABB5A
:100070008BBB25E594E586E52BBB3FE342E45FE0DF
:10008000315040405040E1F700C000009BBB3FE3CF
:1000900042E45FE0315040405040E1F700C00000D2
:1000A0008BBB3FE342E45FE0315040405040E1F71A
:0A00B00000C00000E1CFF894FFCF7C
:00000001FF
