:100000000C942A000C9447000C9447000C94470071
:100010000C9447000C9447000C9447000C94470044
:100020000C9447000C9447000C9447000C94470034
:100030000C9447000C9447000C9447000C94470024
:100040000C9447000C9447000C9447000C94470014
:100050000C94470011241FBECFE5D8E0DEBFCDBF12
:1000600010E0A0E6B0E0E2E7F2E002C005900D92F9
:10007000AA36B107D9F720E0AAE6B0E001C01D9288
:10008000A537B207E1F70E9449000C9437010C94A0
:100090000000CF93DF9300D000D0CDB7DEB78FEF55
:1000A0008ABB87BB84BB81BB19821A821B821C82DC
:1000B000AE014F5F5F4F61E089E30E94A600AE0191
:1000C0004E5F5F4F61E086E30E94A600AE014D5F88
:1000D0005F4F61E083E30E94A600AE014C5F5F4F7B
:1000E00061E080E30E94A600E12CF12C00E010E02A
:1000F00001C0E12C612FCE0101960E94FD00602F0E
:10010000CE0102960E94FD006F2DCE0103960E9443
:10011000FD006E2DCE0104960E94FD0083E294EF57
:100120000197F1F700C000001E5F0F5FF394E394A6
:100130001A3008F010E0063008F000E099E09F1552
:1001400008F4F12C82E08E15A0F2D4CF90ED980F38
:100150009A3008F04CC04115510509F44AC09091FD
:100160006A00953008F047C0292F30E0F901EE0F02
:10017000FF1FE559FF4F7081723020F5220F331FAA
:10018000F901E559FF4F21812223E1F09F5F01C072
:10019000972F292F30E0F901EE0FFF1FE559FF4F90
:1001A0007081723018F090936A000CC071E0790F82
:1001B000220F331FF901E559FF4F21812111E8CFAB
:1001C00090936A00E82FF0E09FEF918390916A008E
:1001D000E92FF0E0EE0FFF1FE559FF4F60838183A9
:1001E000FA0190839F5F90936A0080E0089581E018
:1001F000089581E0089583E00895009771F1FC016E
:100200008081853060F56A3060F590E0FC01EE0F8A
:10021000FF1FE559FF4FA181AA2329F1880F991FDC
:10022000FC01E559FF4F8081813051F4B0E0E62FA9
:10023000F0E0E05AFF4F808112968C9380E00895A1
:10024000811113C0B0E0E62FF0E0E05AFF4F80814B
:10025000809512968C9380E0089584E0089584E060
:10026000089584E0089585E0089585E00895F89460
:02027000FFCFBE
:0A0272003F065B4F666D7D077F6F4E
:00000001FF
