:100000000C942A000C943C000C943C000C943C0092
:100010000C943C000C943C000C943C000C943C0070
:100020000C943C000C943C000C946A000C943C0032
:100030000C943C000C943C000C943C000C943C0050
:100040000C943C000C943C000C943C000C943C0040
:100050000C943C0011241FBECFE5D8E0DEBFCDBF1D
:1000600020E0A0E6B0E001C01D92A536B207E1F79E
:100070000E944D000C9419010C940000D89A83EC56
:1000800099E00197F1F700C00000D89A83EC99E05D
:100090000197F1F700C000000895CF93DF93CDB72B
:1000A000DEB728970FB6F894DEBF0FBECDBF8FEF37
:1000B0008ABB789483E090E00E94920020E042E0C6
:1000C00050E06EE370E0CE0101960E949F000E9416
:1000D000E200FDCF1F920F920FB60F9211248F9363
:1000E0009F93EF93FF93E0916100F091620030974E
:1000F00029F082819381019793838283E091630049
:10010000F0916400309729F0828193810197938365
:100110008283FF91EF919F918F910F900FBE0F906F
:100120001F901895F89488E283BF83B7826083BFDD
:100130008CE78CBF89B7826089BF81E00895F8940D
:10014000E1E6F0E01182108213821282009701F141
:1001500061157105F9F041155105F1F02230F0F407
:10016000FC015183408353834283758364832683D8
:10017000209160002783E22FF0E0EE0FFF1FEF5980
:10018000FF4F918380832F5F2093600081E007C041
:1001900080E005C080E003C080E001C080E078948A
:1001A0000895FC01118210821582148282E08683F8
:1001B000E781F0E0EE0FFF1FEF59FF4F1182108231
:1001C00081E00895EF92FF920F931F93CF93DF93F7
:1001D000C1E6D0E005E610E07E01E881F9813097C4
:1001E000E1F08281938118161906BCF00480F58134
:1001F000E02D0995E881F9818681813019F4CF01DC
:100200000E94D100D701ED91FC9122813381808140
:100210009181820F931F938382832296C017D10707
:10022000D9F681E0DF91CF911F910F91FF90EF9070
:060230000895F894FFCFD1
:00000001FF
