:100000000C942A000C9434000C9434000C943400AA
:100010000C9434000C9434000C9434000C94340090
:100020000C9434000C9434000C9434000C94340080
:100030000C9434000C9434000C9434000C94340070
:100040000C9434000C9434000C9434000C94340060
:100050000C94340011241FBECFE5D8E0DEBFCDBF25
:100060000E9436000C944B000C9400008FEF8ABB6A
:100070009FEF81E09BBB12BE83BF08B600FEFDCFA1
:1000800013BE83BF1BBA12BE83BF08B600FEFDCFEE
:0A00900013BE88BFEFCFF894FFCF36
:00000001FF
