:100000000C942A000C943C000C943C000C943C0092
:100010000C943C000C943C000C943C000C943C0070
:100020000C943C000C943C000C943C000C943C0060
:100030000C943C000C943C000C943C000C943C0050
:100040000C943C000C943C000C943C000C943C0040
:100050000C943C0011241FBECFE5D8E0DEBFCDBF1D
:1000600020E0A0E6B0E001C01D92A036B207E1F7A3
:100070000E944E000C9463000C9400008AB18861C9
:100080008AB986E880BD83E389B908955D9BFECF78
:100090008CB908955F9BFECF8CB108958FEF8ABB1A
:1000A0000E943E00CFEFCBBB87EA91E60197F1F7C4
:1000B00000C000000E944A008634A9F781E30E9434
:0A00C00046001BBAF0CFF894FFCF02
:00000001FF
