:100000000C942A000C9419010C9444010C944700A0
:100010000C9447000C94FE000C9447000C9447008D
:100020000C9447000C9447000C9447000C94470034
:100030000C9447000C9447000C9447000C94470024
:100040000C9447000C9447000C9447000C94470014
:100050000C94470011241FBECFE5D8E0DEBFCDBF12
:1000600010E0A0E6B0E0E8E9F3E002C005900D92F0
:10007000A638B107D9F720E0A6E8B0E001C01D928C
:10008000A03BB207E1F70E9449000C94CA010C940E
:1000900000008FEF84BB0E9478008B982FE788E3E5
:1000A00091E0215080409040E1F700C000008BB704
:1000B000806C8BBF85B7856085BF89B7806489BF39
:1000C00078940E94990090E00E94B2000E94C400BF
:1000D00090E00E94EC008DE00E947F002FE789EA0B
:1000E00093E0215080409040E1F700C00000E9CF4C
:1000F00088E18AB986E880BD83E389B908955D9B6C
:10010000FECF8CB908950F931F93CF93FC0180818C
:10011000882359F08F01C0E00E947F00CF5FF80173
:10012000EC0FF11D80818111F7CFCF911F910F91BD
:100130000895A89A88E28A95F1F7A89885E88A95A3
:10014000F1F700006091AE007091AF00072E000C37
:10015000880B990B20ED31E040E050E00E947301E4
:10016000822F08954AE06CE970E00E94950180E6D4
:1001700090E00E9483008CE990E00E94830080E779
:1001800090E00E9483000895A99A88E28A95F1F789
:10019000A99885E88A95F1F7000040919600509162
:1001A000970080919A0090919B002EE531E0429F4C
:1001B000B001439F700D529F700D1124680F791F7D
:1001C000072E000C880B990B20ED31E040E050E049
:1001D0000E947301822F08954AE066E870E00E9451
:1001E000950185E790E00E94830086E890E00E94F8
:1001F000830080E790E00E94830008951F920F9291
:100200000FB60F9211248F939F9380919600909137
:1002100097000196909397008093960095B380E2A3
:10022000892785BB9F918F910F900FBE0F901F90D4
:1002300018951F920F920FB60F9211248F939F93D0
:100240008091AC009091AD00019771F41EBC8CB50B
:100250009DB59093AF008093AE001DBC1CBC109266
:10026000AD001092AC0009C08EB581608EBD81E0FA
:1002700090E09093AD008093AC009F918F910F9090
:100280000FBE0F901F9018951F920F920FB60F92EE
:1002900011248F939F9380919800909199000197DA
:1002A00091F415BC84B590E090939B0080939A00E4
:1002B0001DBC1CBC109299001092980010929700DF
:1002C0001092960009C085B5826085BD81E090E0FE
:1002D00090939900809398009F918F910F900FBEFB
:1002E0000F901F901895A1E21A2EAA1BBB1BFD01AF
:1002F0000DC0AA1FBB1FEE1FFF1FA217B307E40705
:10030000F50720F0A21BB30BE40BF50B661F771F5C
:10031000881F991F1A9469F760957095809590953C
:100320009B01AC01BD01CF010895BB274A3031F4D8
:10033000992322F4BDE2909581959F4F0C94A101E1
:10034000BB27FB015527AA27880F991FAA1FA417AF
:1003500010F0A41B83955051B9F7A05DAA3308F0A3
:10036000A95DA193009779F7B111B1931192CB01D7
:100370000C94BA01DC01FC01672F71917723E1F73E
:10038000329704C07C916D9370836291AE17BF0762
:08039000C8F30895F894FFCFB3
:1003980075736F6E6963302064617461203D20005D
:1003A800202020200075736F6E69633120646174AA
:0603B80061203D20000061
:00000001FF
