:100000000C942A000C9447000C9447000C94470071
:100010000C9447000C9447000C9447000C94470044
:100020000C9447000C9447000C9447000C94470034
:100030000C9447000C9447000C9447000C94470024
:100040000C9447000C9447000C9447000C94470014
:100050000C94470011241FBECFE5D8E0DEBFCDBF12
:1000600010E0A0E6B0E0EAE3F2E002C005900D92F5
:10007000A438B107D9F720E0A4E8B0E001C01D9290
:10008000A438B207E1F70E94F6000C941B010C940F
:10009000000095B3282F207F9F70922B95BBA898C6
:1000A000A998AA9A0000AA9831E23A95F1F70000BF
:1000B00025B330E1839FC0011124922F9F70892BBB
:1000C00085BBAA9A0000AA9881E28A95F1F7000000
:1000D000089595B3282F207F9F70922B95BBA89AE7
:1000E000A998AA9A0000AA9825B330E1839FC0017D
:1000F0001124922F9F70892B85BBAA9A0000AA9881
:1001000081E28A95F1F7000008951F93CF93DF9362
:10011000EC018881882351F010E00E9469001F5F84
:10012000FE01E10FF11D80818111F7CFDF91CF91A9
:100130001F910895CF93DF9300D000D0CDB7DEB7E5
:1001400090E8998390EC9A8394E99B8394ED9C8347
:100150008150FE01E60FF11D9081890F0E94490038
:1001600083EC99E00197F1F700C000000F900F9029
:100170000F900F90DF91CF9108958FEF84BBAA98D5
:1001800083EF91E00197F1F700C0000083E30E9444
:10019000490091E29A95F1F7000082E30E9449003C
:1001A00021E22A95F1F7000088E20E94490081E2ED
:1001B0008A95F1F700008EE00E94490091E29A953D
:1001C000F1F7000081E00E9449002FE78AE196E004
:1001D000215080409040E1F700C0000086E00E947E
:1001E000490021E22A95F1F7000008950E94BD0020
:1001F00061E081E00E949A0080E690E00E94850024
:100200002FE986E891E0215080409040E1F700C05E
:10021000000062E081E00E949A0081E790E00E9485
:1002200085002FE986E891E0215080409040E1F779
:0A02300000C00000DDCFF894FFCFFE
:10023A00424C41434B5F484154455253205E5F5EF6
:10024A000057452052204A55535420545259494E7A
:04025A004721000038
:00000001FF
