S01800004D45474133325F564F4C544D455445522E737265636C
S11300000C942A000C943F000C943F000C943F0085
S11300100C943F000C943F000C943F000C943F0060
S11300200C943F000C943F000C943F000C943F0050
S11300300C943F000C943F000C943F000C943F0040
S11300400C943F000C943F000C943F000C943F0030
S11300500C943F0011241FBECFE5D8E0DEBFCDBF16
S113006010E0A0E6B0E0E6E2F2E002C005900D92F6
S1130070AE39B107D9F70E94C8000C9411010C9451
S1130080000095B3282F207F9F70922B95BBA898D2
S1130090A998AA9A0000AA9831E23A95F1F70000CB
S11300A025B330E1839FC0011124922F9F70892BC7
S11300B085BBAA9A0000AA9881E28A95F1F700000C
S11300C0089595B3282F207F9F70922B95BBA89AF3
S11300D0A998AA9A0000AA9825B330E1839FC00189
S11300E01124922F9F70892B85BBAA9A0000AA988D
S11300F081E28A95F1F7000008958FEF84BBAA98F6
S113010083EF91E00197F1F700C0000083E30E94C0
S1130110410091E29A95F1F7000082E30E944100C8
S113012081E28A95F1F7000088E20E94410091E2A1
S11301309A95F1F700008FE00E94410081E28A95D0
S1130140F1F7000081E00E94410083EF91E0019704
S1130150F1F700C0000086E00E94410091E29A9508
S1130160F1F7000008951F93CF93DF93EC0188818A
S1130170882351F010E00E9461001F5FFE01E10F2F
S1130180F11D80818111F7CFDF91CF911F910895E7
S11301901ABA0E947D0080E287B981E086B980E6C0
S11301A090E00E94B3002FE38DE093E02150804063
S11301B09040E1F700C000002FE38DE093E0215070
S11301C080409040E1F700C0000084E690E00E9487
S11301D0B3002FE38DE093E0215080409040E1F79D
S11301E000C0000083E790E00E94B3002FE38DE09D
S11301F093E0215080409040E1F700C000008FE779
S113020090E00E94B3002FE38DE093E02150804002
S11302109040E1F700C000008EE890E00E94B30037
S1090220BECFF894FFCFED
S11302266D7361006D736120202020202020202022
S11302362034006D73612020202020202033006D9F
S113024673612020202020202020202032006D737E
S11102566120202020202020202020310000C4
S9030000FC
