S01700004763634170706C69636174696F6E312E737265635B
S11300000C942A000C9447000C9447000C9447006D
S11300100C9447000C9447000C9447000C94470040
S11300200C9447000C9447000C9447000C94470030
S11300300C9447000C9447000C9447000C94470020
S11300400C9447000C9447000C9447000C94470010
S11300500C94470011241FBECFE5D8E0DEBFCDBF0E
S113006010E0A0E6B0E0E2E2F2E002C005900D92FA
S1130070AA38B107D9F720E0AAE8B0E001C01D9280
S1130080AA38B207E1F70E94F1000C940F010C9416
S1130090000095B3282F207F9F70922B95BBA898C2
S11300A0A998AA9A0000AA9831E23A95F1F70000BB
S11300B025B330E1839FC0011124922F9F70892BB7
S11300C085BBAA9A0000AA9881E28A95F1F70000FC
S11300D0089595B3282F207F9F70922B95BBA89AE3
S11300E0A998AA9A0000AA9825B330E1839FC00179
S11300F01124922F9F70892B85BBAA9A0000AA987D
S113010081E28A95F1F7000008958FEF84BBAA98E5
S113011083EF91E00197F1F700C0000083E30E94B0
S1130120490091E29A95F1F7000082E30E944900A8
S113013081E28A95F1F7000088E20E94490091E289
S11301409A95F1F700008FE00E94490081E28A95B8
S1130150F1F7000081E00E94490083EF91E00197EC
S1130160F1F700C0000086E00E94490091E29A95F0
S1130170F1F700000895CF93DF9300D000D0CDB7FE
S1130180DEB790E8998390EC9A8394E99B8394ED8D
S11301909C838150FE01E60FF11D9081890F0E941E
S11301A0490081E28A95F1F700000F900F900F90BB
S11301B00F90DF91CF9108951F93CF93DF93EC01BC
S11301C08881882351F010E00E9469001F5FFE01BE
S11301D0E10FF11D80818111F7CFDF91CF911F9144
S11301E008950E9485008FE081BB61E080E00E9459
S11301F0BB0080E690E00E94DC0062E080E00E94A8
S1130200BB0088E790E00E94DC002FE78AE196E0DB
S1130210215080409040E1F700C00000E6CFF89400
S1050220FFCF0A
S11302227468616E6B7320666F7220796F722065D9
S113023266666F7274732000656E673A6D6F6861EB
S10D02426D656420736169640000B7
S9030000FC
